:020000040800F2
:100000001408002089010008E9010008E90100083E
:10001000E9010008E9010008E9010008000000000A
:10002000000000000000000000000000E9010008DE
:10003000E901000800000000E90100081D080008AF
:10004000E9010008E9010008E9010008E9010008E8
:10005000E9010008E9010008E9010008E9010008D8
:10006000E9010008E9010008E9010008E9010008C8
:10007000E9010008E9010008E9010008E9010008B8
:10008000E9010008E9010008E9010008E9010008A8
:10009000E9010008E9010008E9010008E901000898
:1000A000E9010008E9010008E9010008E901000888
:1000B000E9010008E9010008E9010008E901000878
:1000C000E9010008E9010008E9010008E901000868
:1000D000E9010008E9010008E9010008E901000858
:1000E000E9010008E9010008E9010008E901000848
:1000F000E9010008E9010008E9010008E901000838
:10010000E9010008E9010008E9010008E901000827
:10011000E9010008E9010008E9010008E901000817
:10012000E9010008E9010008E9010008E901000807
:10013000E9010008E9010008E9010008E9010008F7
:10014000E9010008E9010008E9010008E9010008E7
:10015000E9010008E9010008E9010008E9010008D7
:10016000E9010008E9010008E9010008E9010008C7
:10017000E9010008E9010008E9010008E9010008B7
:08018000E9010008E901000893
:1001880080B582B000AF40F62803C0F600037B605C
:1001980040F20003C2F200033B6007E03B681A1D0F
:1001A8003A607A68111D796012681A603A6840F2FC
:1001B8001403C2F200039A42F0D3074807494FF0EC
:1001C80000028842B8BF40F8042BFADB00F03AFA84
:1001D8000837BD4680BD0000140800202008002014
:1001E80080B400AFFEE700BF80B500AF4FF46053A6
:1001F800C4F202034FF46052C4F20202126842F0E1
:1002080001021A604FF46053C4F2020300229A609C
:100218004FF46053C4F202034FF46052C4F2020276
:10022800126822F0847222F480321A604FF460530C
:10023800C4F2020343F21002C2F200425A604FF4C1
:100248006053C4F202034FF46052C4F2020212680F
:1002580022F480221A604FF46053C4F20203002291
:10026800DA6000F009F84FF46D43CEF200034FF066
:1002780000629A6080BD00BF80B483B000AF0023E5
:100288007B6000233B604FF46053C4F202034FF4D9
:100298006052C4F20202126842F480321A604FF4CB
:1002A8006053C4F202031B6803F400333B607B68AD
:1002B80001337B603B68002B03D17B68B3F5A06FEB
:1002C800EDD14FF46053C4F202031B6803F400330A
:1002D800002B02D001233B6001E000233B603B6818
:1002E800012B40F082804FF46053C4F202034FF4B4
:1002F8006052C4F20202126C42F080521A644FF447
:10030800E043C4F200034FF4E042C4F20002126872
:1003180042F480421A604FF46053C4F202034FF46F
:100328006052C4F2020292689A604FF46053C4F2B9
:1003380002034FF46052C4F20202926842F400428F
:100348009A604FF46053C4F202034FF46052C4F24F
:100358000202926842F4A0529A604FF46053C4F2C9
:10036800020345F20842C0F240725A604FF46053EB
:10037800C4F202034FF46052C4F20202126842F05F
:1003880080721A6000BF4FF46053C4F202031B6806
:1003980003F00073002BF6D04FF47053C4F202033D
:1003A80040F205621A604FF46053C4F202034FF43E
:1003B8006052C4F20202926822F003029A604FF47B
:1003C8006053C4F202034FF46052C4F2020292680E
:1003D80042F002029A6000BF4FF46053C4F2020375
:1003E8009B6803F00C03082BF6D10C37BD465DF86B
:1003F800047B704780B487B000AF78603960002311
:100408007B6100233B610023FB6000237B6176E076
:100418007B69012202FA03F33B613B681A683B6976
:100428001340FB60FA683B699A4265D17B681A6899
:100438007B695B00032101FA03F3DB431A407B6805
:100448001A607B681A683B681B7919467B695B00F0
:1004580001FA03F31A437B681A603B681B79012B86
:1004680003D03B681B79022B2ED17B689A687B6985
:100478005B00032101FA03F3DB431A407B689A60AF
:100488007B689A683B685B7919467B695B0001FA6F
:1004980003F31A437B689A607B685A687B699BB24E
:1004A800012101FA03F3DB431A407B685A607B6839
:1004B8005A683B689B7919467B699BB201FA03F33A
:1004C8009BB21A437B685A607B68DA687B699BB287
:1004D8005B00032101FA03F3DB431A407B68DA600F
:1004E8007B68DA683B68DB7919467B695B0001FA4F
:1004F80003F31A437B68DA607B6901337B617B69AC
:100508000F2B85D91C37BD465DF8047B704700BFAB
:1005180080B483B000AF78600B467B807B687A88B4
:100528001A830C37BD465DF8047B704780B483B0EE
:1005380000AF78600B467B807B687A885A830C37DB
:10054800BD465DF8047B704780B483B000AF786027
:100558000B46FB70FB78002B0CD04FF46053C4F2B1
:1005680002034FF46052C4F20202116B7A680A4324
:100578001A630CE04FF46053C4F202034FF4605264
:10058800C4F20202116B7A68D2430A401A630C372C
:10059800BD465DF8047B704780B483B000AF034666
:1005A8003960FB7197F90730002B0EDA4FF46D4371
:1005B800CEF20003FA7902F00F02111F3A68D2B2A4
:1005C8001201D2B20B441A760CE04FF46143CEF21A
:1005D800000397F907103A68D2B21201D2B20B445D
:1005E80083F800230C37BD465DF8047B704700BFD5
:1005F80080B582B000AF78607B68B3F1807F01D3AB
:1006080001231AE04EF21003CEF200037A6822F0BA
:100618007F42013A5A604FF0FF300F21FFF7BCFFCD
:100628004EF21003CEF2000300229A604EF210033D
:10063800CEF2000307221A60002318460837BD4689
:1006480080BD00BF80B582B000AFFFF7CDFD40F29E
:100658000003C2F200031A684DF68363C4F21B3329
:10066800A3FB02139B0C1846FFF7C2FF0346002B9F
:1006780000D0FEE708200121FFF766FF40F61803C7
:10068800C2F200034FF470421A6040F61803C2F237
:10069800000301221A7140F61803C2F20003002277
:1006A8009A7140F61803C2F2000303225A7140F609
:1006B8001803C2F200030022DA714FF44060C4F25A
:1006C800020040F61801C2F20001FFF793FE002372
:1006D8007B604FF44060C4F202004FF48051FFF792
:1006E80017FF4DF29000C0F2030000F063F84FF4DA
:1006F8004060C4F202004FF48051FFF717FF4DF23B
:100708009000C0F2030000F055F84FF44060C4F2C6
:1007180002004FF40051FFF7FBFE4DF29000C0F2CB
:10072800030000F047F84FF44060C4F202004FF4B1
:100738000051FFF7FBFE4DF29000C0F2030000F0FD
:1007480039F84FF44060C4F202004FF48041FFF7DB
:10075800DFFE4DF29000C0F2030000F02BF84FF4DA
:100768004060C4F202004FF48041FFF7DFFE4DF213
:100778009000C0F2030000F01DF84FF44060C4F28E
:1007880002004FF40041FFF7C3FE4DF29000C0F2A3
:10079800030000F00FF84FF44060C4F202004FF479
:1007A8000041FFF7C3FE4DF29000C0F2030000F0D5
:1007B80001F88EE780B483B000AF786040F6140388
:1007C800C2F200037A681A6000BF40F61403C2F24E
:1007D80000031B68002BF8D10C37BD465DF8047B7D
:1007E800704700BF80B400AF40F61403C2F20003A4
:1007F8001B68002B0AD040F61403C2F200031B68E2
:100808005A1E40F61403C2F200031A60BD465DF892
:10081800047B704780B500AFFFF7E4FF80BD00BFE1
:10082800007A030A0000000000000000010203042F
:04083800060708099E
:10083C0000000000000000000000000000000000AC
:10084C00000000000000000000000000000000009C
:10085C00000000000000000000000000000000008C
:10086C00000000000000000000000000000000007C
:040000050800018965
:00000001FF
